{
  "contractName": "CourseMarketplace",
  "abi": [
    {
      "inputs": [
        {
          "internalType": "bytes16",
          "name": "courseId",
          "type": "bytes16"
        },
        {
          "internalType": "bytes32",
          "name": "proof",
          "type": "bytes32"
        }
      ],
      "name": "purchaseCourse",
      "outputs": [],
      "stateMutability": "payable",
      "type": "function",
      "payable": true
    },
    {
      "inputs": [],
      "name": "getCourseCount",
      "outputs": [
        {
          "internalType": "uint256",
          "name": "",
          "type": "uint256"
        }
      ],
      "stateMutability": "view",
      "type": "function",
      "constant": true
    },
    {
      "inputs": [
        {
          "internalType": "uint256",
          "name": "index",
          "type": "uint256"
        }
      ],
      "name": "getCourseHashAtIndex",
      "outputs": [
        {
          "internalType": "bytes32",
          "name": "",
          "type": "bytes32"
        }
      ],
      "stateMutability": "view",
      "type": "function",
      "constant": true
    },
    {
      "inputs": [
        {
          "internalType": "bytes32",
          "name": "courseHash",
          "type": "bytes32"
        }
      ],
      "name": "getCourseByHash",
      "outputs": [
        {
          "components": [
            {
              "internalType": "uint256",
              "name": "id",
              "type": "uint256"
            },
            {
              "internalType": "uint256",
              "name": "price",
              "type": "uint256"
            },
            {
              "internalType": "bytes32",
              "name": "proof",
              "type": "bytes32"
            },
            {
              "internalType": "address",
              "name": "owner",
              "type": "address"
            },
            {
              "internalType": "enum CourseMarketplace.State",
              "name": "state",
              "type": "uint8"
            }
          ],
          "internalType": "struct CourseMarketplace.Course",
          "name": "",
          "type": "tuple"
        }
      ],
      "stateMutability": "view",
      "type": "function",
      "constant": true
    }
  ],
  "bytecode": "0x608060405234801561001057600080fd5b506108c1806100206000396000f3fe60806040526004361061003f5760003560e01c806362e4e6ac146100445780636d11290b1461008157806396cfda06146100be578063d76821cb146100e9575b600080fd5b34801561005057600080fd5b5061006b600480360381019061006691906104fa565b610105565b6040516100789190610683565b60405180910390f35b34801561008d57600080fd5b506100a860048036038101906100a39190610523565b61022c565b6040516100b59190610668565b60405180910390f35b3480156100ca57600080fd5b506100d3610249565b6040516100e0919061069e565b60405180910390f35b61010360048036038101906100fe91906104be565b610253565b005b61010d6103ff565b6000808381526020019081526020016000206040518060a00160405290816000820154815260200160018201548152602001600282015481526020016003820160009054906101000a900473ffffffffffffffffffffffffffffffffffffffff1673ffffffffffffffffffffffffffffffffffffffff1673ffffffffffffffffffffffffffffffffffffffff1681526020016003820160149054906101000a900460ff1660028111156101e9577f4e487b7100000000000000000000000000000000000000000000000000000000600052602160045260246000fd5b6002811115610221577f4e487b7100000000000000000000000000000000000000000000000000000000600052602160045260246000fd5b815250509050919050565b600060016000838152602001908152602001600020549050919050565b6000600254905090565b6000823360405160200161026892919061063c565b60405160208183030381529060405280519060200120905060006002600081548092919061029590610750565b9190505590508160016000838152602001908152602001600020819055506040518060a001604052808281526020013481526020018481526020013373ffffffffffffffffffffffffffffffffffffffff16815260200160006002811115610326577f4e487b7100000000000000000000000000000000000000000000000000000000600052602160045260246000fd5b81525060008084815260200190815260200160002060008201518160000155602082015181600101556040820151816002015560608201518160030160006101000a81548173ffffffffffffffffffffffffffffffffffffffff021916908373ffffffffffffffffffffffffffffffffffffffff16021790555060808201518160030160146101000a81548160ff021916908360028111156103f1577f4e487b7100000000000000000000000000000000000000000000000000000000600052602160045260246000fd5b021790555090505050505050565b6040518060a00160405280600081526020016000815260200160008019168152602001600073ffffffffffffffffffffffffffffffffffffffff16815260200160006002811115610479577f4e487b7100000000000000000000000000000000000000000000000000000000600052602160045260246000fd5b81525090565b60008135905061048e81610846565b92915050565b6000813590506104a38161085d565b92915050565b6000813590506104b881610874565b92915050565b600080604083850312156104d157600080fd5b60006104df8582860161047f565b92505060206104f085828601610494565b9150509250929050565b60006020828403121561050c57600080fd5b600061051a84828501610494565b91505092915050565b60006020828403121561053557600080fd5b6000610543848285016104a9565b91505092915050565b610555816106b9565b82525050565b61056c610567826106b9565b610799565b82525050565b61058361057e826106cb565b6107ab565b82525050565b610592816106f7565b82525050565b6105a1816106f7565b82525050565b6105b08161073e565b82525050565b60a0820160008201516105cc600085018261061e565b5060208201516105df602085018261061e565b5060408201516105f26040850182610589565b506060820151610605606085018261054c565b50608082015161061860808501826105a7565b50505050565b61062781610734565b82525050565b61063681610734565b82525050565b60006106488285610572565b601082019150610658828461055b565b6014820191508190509392505050565b600060208201905061067d6000830184610598565b92915050565b600060a08201905061069860008301846105b6565b92915050565b60006020820190506106b3600083018461062d565b92915050565b60006106c482610714565b9050919050565b60007fffffffffffffffffffffffffffffffff0000000000000000000000000000000082169050919050565b6000819050919050565b600081905061070f82610832565b919050565b600073ffffffffffffffffffffffffffffffffffffffff82169050919050565b6000819050919050565b600061074982610701565b9050919050565b600061075b82610734565b91507fffffffffffffffffffffffffffffffffffffffffffffffffffffffffffffffff82141561078e5761078d6107c7565b5b600182019050919050565b60006107a4826107b5565b9050919050565b6000819050919050565b60006107c082610825565b9050919050565b7f4e487b7100000000000000000000000000000000000000000000000000000000600052601160045260246000fd5b7f4e487b7100000000000000000000000000000000000000000000000000000000600052602160045260246000fd5b60008160601b9050919050565b60038110610843576108426107f6565b5b50565b61084f816106cb565b811461085a57600080fd5b50565b610866816106f7565b811461087157600080fd5b50565b61087d81610734565b811461088857600080fd5b5056fea2646970667358221220d01811c061ff5f1be176b3758cf51a28562e2338b28a3e9af54d92d4851196b464736f6c63430008040033",
  "immutableReferences": {},
  "source": "// SPDX-License-Identifier: MIT\r\npragma solidity >=0.4.2 <0.9.0;\r\n\r\ncontract CourseMarketplace {\r\n    enum State {\r\n        purchased,\r\n        activated,\r\n        deactivated\r\n    }\r\n\r\n    struct Course {\r\n        uint256 id; //32\r\n        uint256 price; //32\r\n        bytes32 proof; //32\r\n        address owner; //20\r\n        State state; //1\r\n    }\r\n    // mapping of courseHash to course data\r\n    mapping(bytes32 => Course) private ownedCourses;\r\n    // mapping of courseID to courseHash\r\n    mapping(uint256 => bytes32) private ownedCourseHash;\r\n    // number of all courses + id of the courses\r\n    uint256 private totalOwnedCourses;\r\n\r\n    function purchaseCourse(bytes16 courseId, bytes32 proof) external payable {\r\n        bytes32 courseHash = keccak256(abi.encodePacked(courseId, msg.sender));\r\n        uint256 id = totalOwnedCourses++;\r\n        ownedCourseHash[id] = courseHash;\r\n        ownedCourses[courseHash] = Course({\r\n            id: id,\r\n            price: msg.value,\r\n            proof: proof,\r\n            owner: msg.sender,\r\n            state: State.purchased\r\n        });\r\n    }\r\n\r\n    function getCourseCount() external view returns (uint256) {\r\n        return totalOwnedCourses;\r\n    }\r\n\r\n    function getCourseHashAtIndex(uint256 index)\r\n        external\r\n        view\r\n        returns (bytes32)\r\n    {\r\n        return ownedCourseHash[index];\r\n    }\r\n\r\n    function getCourseByHash(bytes32 courseHash)\r\n        external\r\n        view\r\n        returns (Course memory)\r\n    {\r\n        return ownedCourses[courseHash];\r\n    }\r\n}\r\n\r\n// 0x00000000000000000000000000003130\r\n// 0x0000000000000000000000000000313000000000000000000000000000003130\r\n",
  "sourcePath": "C:\\Users\\PROSENJIT\\Desktop\\blockchain\\marketplace-eth\\contracts\\CourseMarketplace.sol",
  "compiler": {
    "name": "solc",
    "version": "0.8.4+commit.c7e474f2.Emscripten.clang"
  },
  "schemaVersion": "3.4.9",
  "updatedAt": "2022-10-15T10:25:45.682Z",
  "networkType": "ethereum",
  "devdoc": {
    "kind": "dev",
    "methods": {},
    "version": 1
  },
  "userdoc": {
    "kind": "user",
    "methods": {},
    "version": 1
  }
}