{
  "contractName": "CourseMarketplace",
  "abi": [
    {
      "inputs": [
        {
          "internalType": "bytes16",
          "name": "courseId",
          "type": "bytes16"
        },
        {
          "internalType": "bytes32",
          "name": "proof",
          "type": "bytes32"
        }
      ],
      "name": "purchaseCourse",
      "outputs": [],
      "stateMutability": "payable",
      "type": "function",
      "payable": true
    }
  ],
  "bytecode": "0x608060405234801561001057600080fd5b50610434806100206000396000f3fe60806040526004361061001e5760003560e01c8063d76821cb14610023575b600080fd5b61003d60048036038101906100389190610215565b61003f565b005b6000823360405160200161005492919061027f565b6040516020818303038152906040528051906020012090506000600260008154809291906100819061031d565b9190505590508160016000838152602001908152602001600020819055506040518060a001604052808281526020013481526020018481526020013373ffffffffffffffffffffffffffffffffffffffff16815260200160006002811115610112577f4e487b7100000000000000000000000000000000000000000000000000000000600052602160045260246000fd5b81525060008084815260200190815260200160002060008201518160000155602082015181600101556040820151816002015560608201518160030160006101000a81548173ffffffffffffffffffffffffffffffffffffffff021916908373ffffffffffffffffffffffffffffffffffffffff16021790555060808201518160030160146101000a81548160ff021916908360028111156101dd577f4e487b7100000000000000000000000000000000000000000000000000000000600052602160045260246000fd5b021790555090505050505050565b6000813590506101fa816103d0565b92915050565b60008135905061020f816103e7565b92915050565b6000806040838503121561022857600080fd5b6000610236858286016101eb565b925050602061024785828601610200565b9150509250929050565b61026261025d826102ab565b610366565b82525050565b610279610274826102bd565b610378565b82525050565b600061028b8285610268565b60108201915061029b8284610251565b6014820191508190509392505050565b60006102b6826102f3565b9050919050565b60007fffffffffffffffffffffffffffffffff0000000000000000000000000000000082169050919050565b6000819050919050565b600073ffffffffffffffffffffffffffffffffffffffff82169050919050565b6000819050919050565b600061032882610313565b91507fffffffffffffffffffffffffffffffffffffffffffffffffffffffffffffffff82141561035b5761035a610394565b5b600182019050919050565b600061037182610382565b9050919050565b6000819050919050565b600061038d826103c3565b9050919050565b7f4e487b7100000000000000000000000000000000000000000000000000000000600052601160045260246000fd5b60008160601b9050919050565b6103d9816102bd565b81146103e457600080fd5b50565b6103f0816102e9565b81146103fb57600080fd5b5056fea264697066735822122013005e21abaa5e42dfeb79486e687243ad483892820ffedb3f2cb1ff99ed733f64736f6c63430008040033",
  "immutableReferences": {},
  "source": "// SPDX-License-Identifier: MIT\r\npragma solidity >=0.4.2 <0.9.0;\r\n\r\ncontract CourseMarketplace {\r\n    enum State {\r\n        purchased,\r\n        activated,\r\n        deactivated\r\n    }\r\n\r\n    struct Course {\r\n        uint256 id; //32\r\n        uint256 price; //32\r\n        bytes32 proof; //32\r\n        address owner; //20\r\n        State state; //1\r\n    }\r\n    // mapping of courseHash to course data\r\n    mapping(bytes32 => Course) private ownedCourses;\r\n    // mapping of courseID to courseHash\r\n    mapping(uint256 => bytes32) private ownedCourseHash;\r\n    // number of all courses + id of the courses\r\n    uint256 private totalOwnedCourses;\r\n\r\n    function purchaseCourse(bytes16 courseId, bytes32 proof) external payable {\r\n        bytes32 courseHash = keccak256(abi.encodePacked(courseId, msg.sender));\r\n        uint256 id = totalOwnedCourses++;\r\n        ownedCourseHash[id] = courseHash;\r\n        ownedCourses[courseHash] = Course({\r\n            id: id,\r\n            price: msg.value,\r\n            proof: proof,\r\n            owner: msg.sender,\r\n            state: State.purchased\r\n        });\r\n    }\r\n}\r\n",
  "sourcePath": "C:\\Users\\PROSENJIT\\Desktop\\blockchain\\marketplace-eth\\contracts\\CourseMarketplace.sol",
  "compiler": {
    "name": "solc",
    "version": "0.8.4+commit.c7e474f2.Emscripten.clang"
  },
  "schemaVersion": "3.4.9",
  "updatedAt": "2022-10-15T10:01:36.216Z",
  "networkType": "ethereum",
  "devdoc": {
    "kind": "dev",
    "methods": {},
    "version": 1
  },
  "userdoc": {
    "kind": "user",
    "methods": {},
    "version": 1
  }
}